:020000040800F2
:1000000000040020B1040008F1050008F105000813
:10001000F1050008F1050008F1050008F1050008E8
:10002000F1050008F1050008F105000811060008B7
:10003000F1050008F1050008F1050008F1060008C7
:10004000F1050008F1050008F1050008F1050008B8
:10005000F1050008F1050008F1050008F1050008A8
:10006000F1050008F1050008F1050008311300084A
:100070006113000891130008C1130008F113000870
:100080002114000851140008E1160008F1050008C9
:10009000F1050008F1050008F1050008F105000868
:1000A000F1050008F1050008F1050008F105000858
:1000B000F1050008F1050008D1190008F105000854
:1000C000F1050008F1050008F1050008F105000838
:1000D000F1050008911A0008F1050008F105000873
:1000E000F1050008F1050008F1050008F105000818
:0400F000F10500080E
:100100002DE9884800F0E4FF00F062FB4FF48060C6
:10011000C4F202000821012201F0D2FB4FF48060FA
:10012000C4F202001021012201F0CAFB4FF48060EA
:10013000C4F202002021012201F0C2FB4FF48060D2
:10014000C4F202004FF48061012201F0B9FB4FF4C8
:100150008060C4F202004FF40061012201F0B0FBA4
:100160004FF48060C4F202004FF48051012201F08C
:10017000A7FB4FF48060C4F202004FF4005101224B
:1001800001F09EFB4FF48060C4F202004FF4804106
:10019000012201F095FB4FF48060C4F202004FF49D
:1001A0000041012201F08CFB4FF48060C4F2020098
:1001B0004FF40071012201F083FB0020C4F2020021
:1001C0004FF48061012201F07BFB4FF48060C4F2A8
:1001D00002004FF48071012201F072FB4FF4806045
:1001E000C4F202008021012201F06AFB0020C4F267
:1001F00002000221012201F063FB0020C4F2020090
:100200000421012201F05CFB0020C4F2020008215D
:10021000012201F055FB0020C4F202004FF480617E
:10022000012201F04DFB0020C4F202004FF40071E6
:10023000012201F045FB0020C4F202004FF480715E
:10024000012201F03DFB0020C4F202004FF4004106
:10025000012201F035FB4FF40060C4F202004FF4BC
:100260000061012201F02CFB4FF40060C4F2020097
:100270004FF48061012201F023FB4FF40060C4F2CF
:1002800002004FF40071012201F01AFB4FF40060EC
:10029000C4F202004FF48071012201F011FB4FF40F
:1002A0000060C4F202008021012201F009FB4FF43A
:1002B0000060C4F202004021012201F001FB4FF472
:1002C0000060C4F202000821012201F0F9FA4FF4A3
:1002D0000060C4F202000421012201F0F1FA4FF49F
:1002E0000060C4F202000221012201F0E9FA4FF499
:1002F000806600254FF400644FF08008C4F20206C7
:10030000C4F20205C4F202044FF0800333834FF4B9
:10031000FA704FF4004900F0BBFCA6F81A804FF4C5
:10032000FA7000F0B5FCA6F818904FF4FA704FF48C
:10033000007700F0ADFCA6F81A904FF4FA7000F0C8
:10034000A7FC37834FF4FA7000F0A2FC4FF4806BE7
:1003500077834FF4FA7000F09BFCA6F818B04FF4C6
:10036000FA7000F095FC4FF4006AA6F81AB04FF44A
:10037000FA7000F08DFCA6F818A04FF4FA7000F0A7
:1003800087FCA6F81AA04FF4FA7000F081FCA5F8DB
:1003900018804FF4FA7000F07BFCA5F81A804FF437
:1003A000FA7000F075FCA5F818904FF4FA7000F0A0
:1003B0006FFCA5F81A904FF4FA7000F069FC2F83D7
:1003C0004FF4FA704FF4807A00F062FC6F834FF4C0
:1003D000FA7000F05DFCA5F818A04FF4FA704FF029
:1003E000020900F055FCA5F81AA04FF4FA7000F0CD
:1003F0004FFCA5F818904FF4FA7000F049FCA5F8EE
:100400001A904FF4FA7000F043FCA4F818804FF4EF
:10041000FA7000F03DFC4FF0400BA4F81A804FF446
:10042000FA7000F035FCA4F818B04FF4FA7000F040
:100430002FFCA4F81AB04FF4FA7000F029FC2783BF
:100440004FF4FA7000F024FC67834FF4FA7000F068
:100450001FFCA4F818A04FF4FA7000F019FCA4F8DF
:100460001AA04FF4FA7000F013FCA4F818904FF49F
:10047000FA7000F00DFCA4F81A904FF4FA7000F036
:1004800007FC41E700000000000000000000000041
:10049000704700BF000000000000000000000000E6
:1004A000FEE700BF000000000000000000000000A8
:1004B00072B640F60000C2F2000080F30988022301
:1004C00083F31488BFF36F8F40F2000340F20042C1
:1004D000C2F20003C2F2000293420BD2D94311448C
:1004E00021F0030119444FF05532043B43F8042F27
:1004F0008B42FBD140F20043C2F2000383420CD294
:1005000037491A1D891A21F0030119444FF0553259
:10051000043B43F8042F8B42FBD101F061FB40F612
:10052000000140F60003C2F20001C2F2000399424A
:100530000ED2CC431C4424F0030441F6585004343A
:10054000C0F600000023C258CA500433A342FAD1B7
:1005500040F6000340F6B422C2F20003C2F20002E9
:1005600093420AD2D943114421F0030119440022D5
:10057000043B43F8042F8B42FBD1FFF789FF40F285
:10058000F40540F2F403C0F60005C0F600039D42F6
:100590000BD2EE431E44B6080136043D002401345C
:1005A00055F8043F9847B442F9D1FFF7A9FD40F24E
:1005B000F40540F2F403C0F60005C0F600039D42C6
:1005C0000BD2EE431E44B6080136043D002401342C
:1005D00055F8043F9847B442F9D1FFF761FF00BFD7
:1005E00003080020000000000000000000000000E0
:1005F000FEE700BF00000000000000000000000057
:1006000000F0BEFA00DF00BF0000000000000000A4
:10061000EFF30983203383F30988002383F31188E0
:10062000704700BF00000000000000000000000054
:1006300008B54FF440724FF46D43CEF20003C0F2A0
:10064000FA52002199600720DA60102100F098F832
:100650000A20202100F094F8BDE808400B208021FA
:1006600000F08EB800000000000000000000000054
:10067000202383F311884FF46D43CEF200035B68AF
:1006800013F400631FD0EFF309824FF0807342F838
:10069000043CA2F1200383F3098840F63813C2F228
:1006A00000039969C87F88B118688B68816899428E
:1006B00094BF0023012393B140F20163C0F600030D
:1006C00042F8083C704783F31188704718688B68BC
:1006D0008168994234BF00230123002BECD140F202
:1006E0000463C0F6000342F8083C704700000000B5
:1006F00008B5202383F3118800F0A2F8002383F3C8
:100700001188BDE80840FFF7B3BF00BF000000003C
:100710002DE9F04FC1F80CD0D0F80CD0BDE8F08F27
:10072000002383F311882846A04700F0E9FA7047B8
:1007300000F0030330B4DB00FF259D409940012207
:1007400000F01F039A4020F0030404F1604404F514
:100750006144D4F800334009800023EA050300F126
:10076000604000F561400B43C4F80033C0F88021BD
:1007700030BC0260704700BF0000000000000000B5
:1007800000F00303DB00FF229A40994020F00300B1
:1007900000F1604000F56D40836923EA02030B43DA
:1007A00083617047000000000000000000000000AE
:1007B00040F63813C2F200039A6941F60043C0F6CE
:1007C00000039361FEE700BF00000000000000008E
:1007D00010B582B0FFF72CFF00F0EAF800F068F8DF
:1007E00000F02EFC00F064FC40F600004021C2F254
:1007F000000000F0D5F940F63813C2F200030122E0
:1008000098610277002383F3118862B640F63813AB
:10081000C2F200039C6941F61042C0F600020021BA
:1008200040F6480040F2B173A261C0F600030091A7
:100830000122E021C2F2000000F0E2F902B010BD96
:1008400070B540F63813C2F200039B69DA7F0AB133
:10085000013ADA771A6A40F628110132C2F2000131
:100860001A62CB680A6801338A42CB6019D0966855
:10087000013E9660AEB90D461068D4680860D66037
:100880000023416083F311881069A047202383F37C
:1008900011882A6840F628119368C2F20001002BE3
:1008A000EAD070BD00000000000000000000000061
:1008B00040F62813C2F200034FF0FF3100225B60C4
:1008C0001B609960DA6070470000000000000000C3
:1008D00070B440F62816C2F200063468A5680361B9
:1008E000A942C26004D92468491BA5688D42FAD385
:1008F0006368B442046043606060186081601EBF3A
:10090000A368C1EB0301A16070BC70470000000048
:10091000036840F62812C2F2000293421FBF996892
:10092000826852189A6042680021136003685A6016
:10093000C1607047000000000000000000000000DF
:1009400010B4202383F31188037F0D2B11D8DFE827
:1009500003F029101007100B101010101010100BBE
:10096000436A9A6801329A6090E80C001A60026843
:1009700053604FF0FF34002340F638128168446220
:100980000377C2F20002126893688B42FBD251686F
:100990000023026041605060086083F311885DF8B5
:1009A000044B7047002383F311885DF8044B7047B4
:1009B00040F63813C2F2000300225B601B605B61EB
:1009C0001B619A60704700BF00000000000000003B
:1009D000002240F63813816810B4C2F200030446C6
:1009E00002771B689A688A42FBD25A6820462360C5
:1009F00062605C6014605DF8044B704700000000AA
:100A000040F63813C2F2000370B41A68996914688A
:100A1000142601250877CE77636015771C60104691
:100A200070BC9A61FFF774BE000000000000000077
:100A300030B54B1C87B0054617D040F63814C2F2CB
:100A4000000440F64112A36901A8C0F60002FFF7B6
:100A50003FFF2846FFF7D4FF049B13B101A8FFF71F
:100A600057FFA369586A07B030BDFFF7C9FF40F6CA
:100A70003814C2F20004A369586A07B030BD00BF41
:100A8000F0B440F63817C2F20007D7F818C08568EE
:100A9000DCF808400646A54241620DD800223B46DC
:100AA00002771B689A689542FBD95A683360726076
:100AB0005E601660F0BC704700238CF81C303B462B
:100AC0001B689A689442FBD95A680124CCF800301C
:100AD000CCF80420C3F804C0C2F800C03477304614
:100AE000BE616146F0BCFFF713BE00BF000000000E
:100AF00040F63812C2F200021068F0B4036895693B
:100B0000012714260021AC6813605A60077703465A
:100B10009061EE77297700E01B689A68A242FBD2C9
:100B20005A6829462B606A605D601560F0BCFFF76B
:100B3000EFBD00BF0000000000000000000000004A
:100B400040F63812C2F20002106870B4036895696A
:100B500001260021AC6813605A6006770346906155
:100B6000297700E01B689A68A242FBD85A68294698
:100B70002B606A605D60156070BCFFF7C9BD00BF87
:100B800040F63813C2F200039B69DB7F0BB1FFF71D
:100B9000D7BFFFF7ADBF00BF00000000000000009E
:100BA0002DE9F00340F63812C2F200025569002424
:100BB00000F12C064FF002094FF0140800F128074D
:100BC0004FF0010C45610261816080F81C9080F853
:100BD0001F804477C463846304628461016450614C
:100BE00080F81EC0286187620663C662BDE8F00314
:100BF000704700BF0000000000000000000000007F
:100C00002DE9F0479E460446202383F3118840F6E1
:100C10003816A1F124031844C2F20006776940F2A5
:100C20002171E06044F803E0089B002504F12C0EDC
:100C300004F1280CC0F600014FF0020A4FF014092D
:100C40004FF0010843600162A2602661676122647F
:100C500084F81CA084F81F9084F81E806577746166
:100C6000E563A5632562A56120463C612946C4F879
:100C700028C0C4F830E0C4F82CE0FFF701FF2B4691
:100C800083F311882046BDE8F08700BF0000000014
:100C900008B50146202383F311880620FFF7C8FE1C
:100CA000002383F3118808BD00000000000000004D
:100CB00038B540F63813C2F200039C69254655F852
:100CC000283F6062AB4207D01A681846A262FFF75D
:100CD0007FFEA36AAB42F7D1637F9B0704D12269F1
:100CE00063691A61226953610E20BDE83840FFF73D
:100CF00087BE00BF000000000000000000000000F0
:100D0000202383F31188FFF7D3BF00BF000000004A
:100D10000023406000608360704700BF0000000057
:100D200008B5826B037F1143082B81630BD0092B1D
:100D300000D008BD436A19408B42FAD1FFF748FE44
:100D40000023436208BD436A1942F7D108BD00BFC2
:100D500070B504680546A0420E4609D0E368606895
:100D60003343E360A168FFF7DBFF2468A542F5D1B8
:100D700070BD00BF00000000000000000000000087
:100D800010B4024679B140F63813C2F200039B69F1
:100D90000D205A62546883E81400536023605DF8A4
:100DA000044BFFF745BE4FF0FF305DF8044B704732
:100DB00030B4029C00250A448560046202614060F0
:100DC000006041618161C160C36130BC704700BF98
:100DD00003464269806910B582429C681BD0501C52
:100DE000013458619C60117059691A6991420BD2A3
:100DF000186898420DD002681A605360FFF7E8FD4A
:100E000000234362184610BD1868DA6898425A6198
:100E1000F1D1002010BD002CE1D06FF0030010BD17
:100E200070B5202304460E4683F31188C3692BB1A5
:100E3000984703E0FFF7A4FF002815DBA5682046CC
:100E40003146002DF6D0A2692169531C8B42A36163
:100E500005F1FF3528BFE368A560107828BFA361BE
:100E6000002383F3118870BD2B4683F3118870BD76
:100E70002DE9F0471E460446D0F81C80202383F35A
:100E800011884FF0000901EB020A4F1CB8F1000F66
:100E900005D02046C04702E0FFF772FFF0B9A56811
:100EA00020463146002DF7D0A369013D5A1CA261AE
:100EB000A5601B7807F8013C2369A2699A4224BF08
:100EC000E368A361002383F31188574509F1010901
:100ED00007D0202383F311880137D7E72B4683F30C
:100EE00011884846BDE8F0870000000000000000BF
:100EF00030B4029C8D18056104624060006082601D
:100F000041618161C160C36130BC70470000000075
:100F1000F8B504460F461646202383F3118803E0F4
:100F2000FFF72EFF002819DBA56820463146002D6B
:100F3000F6D06369013D5A1C6261A5601F70236988
:100F400062699A4224BFE3686361E3690BB120469A
:100F50009847002383F311880020F8BD2B4683F3C4
:100F60001188F8BD00000000000000000000000033
:100F70008269416910B591420346846816D01869A8
:100F80000134511C9C609961814214780BD218681D
:100F9000984206D002681A605360FFF719FD0023DB
:100FA0004362204610BDDA689A61F0E7002CE6D073
:100FB0006FF0020010BD00BF000000000000000044
:100FC0002DE9F84F9A4604460E461746D0F81C9075
:100FD000202383F311884FF00008A56806F1010B68
:100FE00020466B1EDDB16269A360531C63613378D8
:100FF0001370236962699A4224BFE3686361B9F19F
:10100000000F00D0C847002383F31188013F08F187
:1010100001080DD0202383F311885E46DDE72046CA
:101020005146FFF7ADFE0028D7D02B4683F3118839
:101030004046BDE8F88F00BF00000000000000003F
:1010400044F200010848C2F2000140F6541240F692
:10105000581321F00701C2F2000220F00700C2F28B
:101060000003116018607047BB0A002000000000F8
:10107000202383F3118840F6581340F65412C2F22D
:101080000003C2F2000219681268073020F007005E
:10109000521A90429BBF4018186000200846002357
:1010A00083F31188704700BF0000000000000000BB
:1010B00040F66013C2F2000341F271020021C0F653
:1010C000000203F110001A609960D960FFF720BE9A
:1010D00008B500F0FDF900F003F941F6B040C0F6A4
:1010E000000000F065FB00F00BF800F021F800F0C4
:1010F0006FF800F0BDF8BDE8084000F079BD00BF12
:1011000000F036BB000000000000000000000000FE
:1011100000230122027043608360C3600361436166
:101120001830FFF7F5BD00BF000000000000000010
:1011300000F08EBC00000000000000000000000075
:101140000122002302704360704700BF00000000CE
:101150000C30FFF78DBE00BF000000000000000053
:101160000C304FF0FF33FFF783BE00BF00000000DC
:101170003030FFF725BF00BF000000000000000076
:1011800030304FF0FF33FFF71BBF00BF00000000FF
:101190000C30FFF745BE00BF00000000000000005B
:1011A0000C304FF0FF31FFF73BBE00BF00000000E6
:1011B0003030FFF7ADBE00BF0000000000000000AF
:1011C00030304FF0FF32FFF7A3BE00BF0000000039
:1011D00000F0EEBC00000000000000000000000075
:1011E00070B541F63045C0F60005044682B040F8BF
:1011F000045B012600940B461546606004F154011F
:1012000004F10C0026721022FFF7D2FD00942B4649
:1012100004F1300004F164011022FFF769FE02B00E
:1012200070BD00BF000000000000000000000000D2
:1012300038B5436904460D463BB1294604F10C001C
:10124000FFF7C6FD00280BDB38BD04300421FFF793
:101250007FFD294604F10C00FFF7BAFD0028F3DA00
:10126000201D8021BDE83840FFF772BD000000005E
:1012700000F086BB0000000000000000000000003D
:10128000002301220270436083600C30FFF740BDF1
:101290004FF48053CEF200035B688360704700BF59
:1012A0004FF48053CEF2000340F680125B688168F1
:1012B000C2F2000210B414685B1AC2681B1B93428E
:1012C000836088BFC36003D80269934238BF03615B
:1012D0005DF8044B704700BF0000000000000000F4
:1012E00010B540F6801486B0C2F2000400224FF020
:1012F000FF314FF48053226004920591CEF2000337
:10130000596841F2912241F2A123C0F60002C0F6D1
:10131000000301A8029303910192FFF7C1FF039B11
:10132000236006B010BD00BF0000000000000000F8
:101330004FF4C042C4F2020240F684131168C2F2B4
:10134000000310B51C6801F00F0151600CB1586822
:10135000A047BDE81040FFF78BB900BF00000000B8
:101360004FF4C042C4F20202116840F68413C2F284
:10137000000310B5C1F303119C68080150600CB163
:10138000D868A047BDE81040FFF772B90000000020
:101390004FF4C042C4F20202116840F68413C2F254
:1013A000000310B5C1F303211C69080250600CB1A1
:1013B0005869A047BDE81040FFF75AB90000000087
:1013C0004FF4C042C4F20202116840F68413C2F224
:1013D000000310B5C1F303319C69080350600CB1E0
:1013E000D869A047BDE81040FFF742B900000000EF
:1013F0004FF4C042C4F20202116840F68413C2F2F4
:10140000000310B5C1F303411C6A080450600CB11D
:10141000586AA047BDE81040FFF72AB90000000055
:101420004FF4C042C4F20202116840F68413C2F2C3
:10143000000310B5C1F303519C6A080550600CB15C
:10144000D86AA047BDE81040FFF712B900000000BD
:101450004FF4C042C4F20202116840F68413C2F293
:10146000000310B5C1F303611C6B080650600CB19A
:10147000586BA047BDE81040FFF7FAB80000000025
:1014800040F6BC1330B40021C2F2000341F65045CF
:1014900040F6841419600A460B46C0F60005C2F2F5
:1014A0000004E8580C33542B0160A15002F10802EB
:1014B000F7D130BC4FF4C043C4F202034FF0FF3207
:1014C0005A607047000000000000000000000000AB
:1014D0004FF46053C4F202031A69002162F400421F
:1014E000F0B41A61196198694EF2100260F08050F0
:1014F0009861CEF2000299614FF0FF3647F6FF4542
:1015000007244EF6F0505F69CEF200005E6159612B
:10151000556091601460C2684FF4805142F080724F
:10152000C260CEF2000108684FF4E04240F00100D2
:101530000860596AC4F2000241F080515962116892
:1015400041F4807111605A6B02F44032B2F5803F71
:1015500007D05A6B42F400025A635A6B22F400021D
:101560005A634FF46053C4F202035A6B194642F4B3
:1015700080725A634A6B4FF460539005C4F20203C1
:10158000F8D55A6B520207D45A6B42F480325A6330
:101590005A6B42F480025A63F0BCFFF771BF00BF80
:1015A0004FF46053C4F202034FF080524FF4E04115
:1015B00010B4C4F200015A624A684FF4E043D00606
:1015C000C4F20003F8D44FF400621A601A4653685C
:1015D00013F01003FBD14FF46052C4F20202936087
:1015E00051684FF4807321F4604141F4204151600F
:1015F000114613600A684FF460539205C4F2020367
:10160000F8D51A68194642F001021A600A684FF4C8
:1016100060539407C4F20203F8D55A6B194642F09E
:1016200001025A634A6B4FF460539007C4F20203FD
:10163000F8D55A6BD1050FD44FF4E042C4F2000242
:10164000116841F480711160596B41F480715963E4
:10165000136823F4807313604FF46051C4F20201E5
:101660004A6B4FF460539205C4F20203F8D59A68AE
:10167000194642F408029A601A6842F080721A60B1
:101680000A684FF460539401C4F20203F8D5196854
:101690004FF4705219609968C4F2020299605C6B51
:1016A0000721042044F480345C63106011609A6860
:1016B000194642F003029A608A684FF4605302F0C0
:1016C0000C020C2AC4F20203F6D11A6A5DF8044B2C
:1016D00042F001021A62DA6A42F00102DA627047ED
:1016E0004FF41053C4F201031968002270B51A6058
:1016F0008B0639D540F6C014C2F20004E36A1968BB
:101700004868002830D0206900282DD00D680F26A9
:1017100025F00F050D60197A85688E405868A36A18
:10172000012106605A609A60996045B105232370D3
:101730002046A8472378052B04BF022323700023EB
:101740002361202383F3118840F6C013C2F2000303
:10175000586930B14FF0FF32426200225A61FFF700
:1017600037F9002383F31188BDE87040FEF780BF8E
:1017700038B540F6C014C2F200042046FFF7C8FC9A
:101780004FF4105241F65043C0F6000342F28A551E
:10179000C4F20102A262E362256312206021BDE867
:1017A0003840FEF7C5BF00BF000000000000000089
:1017B0004FF46052C4F20202D36970B443F03F03A5
:1017C000D361916A002341F03F019162916AC4F2B2
:1017D000020341F03F01916242684FF480655A6014
:1017E0008268C4F202059A60C2684FF40064DA604D
:1017F0000269C4F202045A6142694FF440611A62FC
:101800008269C4F202015A6206684FF480521E6077
:10181000036AC4F202026B60466A4FF4A053AE60E2
:10182000866AC4F20203EE60C66A6E61066B2E62BF
:10183000466B6E62C6692E60C56B6560056CA560FF
:10184000456CE560856C6561C56C2562056D6562FA
:10185000856B2560846D4C60C46D8C60046ECC60BB
:10186000446E4C61846E0C62C46E4C62446D0C60BC
:10187000416F5160816F9160C16FD160D0F880106D
:1018800070BC5161D0F884101162D0F88810516298
:10189000016F1160D0F890205A60D0F894209A60BF
:1018A000D0F89820DA60D0F89C205A61D0F8A020B7
:1018B0001A62D0F8A4205A62D0F88C201A607047BF
:1018C0002DE9F00F002302F00307C2F38006C2F3F4
:1018D000C105C2F34114C2F3C31B4FF00F0A4FF00E
:1018E000010904E07600AD00A400BF00013303F05D
:1018F000070211F0010F4FEA82023BD00BFA02FC03
:101900000AFA02F2072B95BFD0F82080D0F8248085
:1019100028EA020228EA020294BF42EA0C0242EAE2
:101920000C0209FA03FC94BF026242624FF0030802
:101930005A0008FA02F2D0F80480D24328EA0C0CCC
:101940004CEA060CC0F804C0D0F808C002EA0C0C3F
:101950004CEA050CC0F808C0D0F80CC002EA0C0C28
:101960004CEA040CC0F80CC0D0F800C002EA0C022B
:101970003A4302604908B5D1BDE8F00F704700BF97
:1019800038B540F6F814C2F2000440F6F413C2F27F
:1019900000034FF6FF7220461A80FFF771FC084BD8
:1019A0004FF46052C4F2000203F10C0541F20A0048
:1019B00041F21801E26123626562A062E16238BD12
:1019C000741C00080000000000000000000000007F
:1019D00038B540F62825C2F200052B691A69DC6883
:1019E0001440A4B2E2B2D2431A61A3072AD460071A
:1019F00020D4210716D4E2060CD4E30706D56B6881
:101A000040F628209B68C2F200009847BDE83840A5
:101A1000FEF72EBE6B6840F628209B6AC2F20000DB
:101A20009847EAE76B6840F628201B6AC2F200007C
:101A30009847E0E76B6840F628209B69C2F20000F7
:101A40009847D6E76B6828461B699847CFE700BFE1
:101A500010B540F62824C2F200042046FFF770FBC0
:101A60004FF40063C4F20003236110BD00000000C6
:101A70004FF46053C4F201039A8992B242F080029B
:101A80009A81704700000000000000000000000084
:101A9000F8B540F63C26C2F20006756FAF892C8877
:101AA000BFB2A4B2E0054BD4202383F31188A10672
:101AB00024D50BE0A98840F63C20C2F20000C9B250
:101AC000FFF7B6FB2C88A4B2A00617D52207F1D0E9
:101AD00014F0080F14BF8021002114F0010F18BF6B
:101AE00041F02001A30748BF41F0400164072C48A2
:101AF00048BF41F48071FFF72BF9DBE7002383F344
:101B00001188390601D5220629D4630614D520236D
:101B100083F31188726CB36C40F63C209A42C2F297
:101B200000002BD04FF6BF733B404FF6BF72AB8126
:101B300000232A8083F31188BDE8F840FEF798BDA2
:101B4000202383F311884FF40071301DFFF700F953
:101B5000002383F311884FF6FF632B80A4E7202333
:101B600083F311880F48FFF703FA0028A4BF80B25F
:101B7000A8800BDB002383F31188C6E7836B002B5F
:101B8000D0D004301021FFF7E3F8CBE70448082158
:101B9000FFF7DEF827F0C00343F04003AB81E9E72D
:101BA000400A00206C0A0020000000000000000035
:101BB00010B540F63C24C2F2000441F671222046E2
:101BC000C0F600020021FFF70BFB4FF46053C4F294
:101BD0000103636710BD00BF0000000000000000AB
:101BE000FFF7DEBC00000000000000000000000065
:101BF000704700BF0000000000000000000000006F
:101C000069646C6500000000000000000000000036
:101C10006D61696E00168611040448080C101418D2
:101C2000001C1D1E1F20000000000000000000001E
:101C30008111000861110008C1110008A1110008FC
:101C4000B11100089111000871110008511100082C
:101C5000086002400460024000000B001C6002406B
:101C60000460024004010C00306002400460024045
:101C700008020D0044600240046002400C030E00A4
:101C8000586002400460024010040F006C60024083
:101C900004600240140510008060024004600240AD
:101CA0001806110000000000000000000000000005
:101CB000000000A800000000000000FC545555651D
:101CC000FFFF000000000000000000008052000044
:101CD00000000000F0F30000050555553FFF00002F
:101CE00000000000000000000000000000000000F4
:101CF000000000F055555505FFFF000000000000F2
:101D000000000000000000000000000000000000D3
:101D100055555555FFFF0000000000000000000071
:101D2000000000000000000000000000555555555F
:101D3000FFFF0000000000000000000000000000A5
:101D4000000000000F00000050555555FFFF000037
:081D500000000000000000008B
:04000005080004B13A
:00000001FF
